{
  "contractName": "CourseMarketplace",
  "abi": [
    {
      "inputs": [],
      "stateMutability": "nonpayable",
      "type": "constructor"
    },
    {
      "inputs": [],
      "name": "CourseHasOwner",
      "type": "error"
    },
    {
      "inputs": [
        {
          "internalType": "bytes16",
          "name": "courseId",
          "type": "bytes16"
        },
        {
          "internalType": "bytes32",
          "name": "proof",
          "type": "bytes32"
        }
      ],
      "name": "purchaseCourse",
      "outputs": [],
      "stateMutability": "payable",
      "type": "function",
      "payable": true
    },
    {
      "inputs": [
        {
          "internalType": "bytes32",
          "name": "courseHash",
          "type": "bytes32"
        }
      ],
      "name": "activateCourse",
      "outputs": [],
      "stateMutability": "nonpayable",
      "type": "function"
    },
    {
      "inputs": [
        {
          "internalType": "bytes32",
          "name": "courseHash",
          "type": "bytes32"
        }
      ],
      "name": "deactivateCourse",
      "outputs": [],
      "stateMutability": "nonpayable",
      "type": "function"
    },
    {
      "inputs": [
        {
          "internalType": "address",
          "name": "newOwner",
          "type": "address"
        }
      ],
      "name": "transferOwnership",
      "outputs": [],
      "stateMutability": "nonpayable",
      "type": "function"
    },
    {
      "inputs": [],
      "name": "getCourseCount",
      "outputs": [
        {
          "internalType": "uint256",
          "name": "",
          "type": "uint256"
        }
      ],
      "stateMutability": "view",
      "type": "function",
      "constant": true
    },
    {
      "inputs": [
        {
          "internalType": "uint256",
          "name": "index",
          "type": "uint256"
        }
      ],
      "name": "getCourseHashAtIndex",
      "outputs": [
        {
          "internalType": "bytes32",
          "name": "",
          "type": "bytes32"
        }
      ],
      "stateMutability": "view",
      "type": "function",
      "constant": true
    },
    {
      "inputs": [
        {
          "internalType": "bytes32",
          "name": "courseHash",
          "type": "bytes32"
        }
      ],
      "name": "getCourseByHash",
      "outputs": [
        {
          "components": [
            {
              "internalType": "uint256",
              "name": "id",
              "type": "uint256"
            },
            {
              "internalType": "uint256",
              "name": "price",
              "type": "uint256"
            },
            {
              "internalType": "bytes32",
              "name": "proof",
              "type": "bytes32"
            },
            {
              "internalType": "address",
              "name": "owner",
              "type": "address"
            },
            {
              "internalType": "enum CourseMarketplace.State",
              "name": "state",
              "type": "uint8"
            }
          ],
          "internalType": "struct CourseMarketplace.Course",
          "name": "",
          "type": "tuple"
        }
      ],
      "stateMutability": "view",
      "type": "function",
      "constant": true
    },
    {
      "inputs": [],
      "name": "getContractOwner",
      "outputs": [
        {
          "internalType": "address",
          "name": "",
          "type": "address"
        }
      ],
      "stateMutability": "view",
      "type": "function",
      "constant": true
    }
  ],
  "bytecode": "0x608060405234801561001057600080fd5b506100203361002560201b60201c565b610069565b80600360006101000a81548173ffffffffffffffffffffffffffffffffffffffff021916908373ffffffffffffffffffffffffffffffffffffffff16021790555050565b6112ee806100786000396000f3fe60806040526004361061007b5760003560e01c8063935d7e6d1161004e578063935d7e6d1461014e57806396cfda0614610177578063d76821cb146101a2578063f2fde38b146101be5761007b565b80633926257214610080578063442890d5146100a957806362e4e6ac146100d45780636d11290b14610111575b600080fd5b34801561008c57600080fd5b506100a760048036038101906100a29190610cdf565b6101e7565b005b3480156100b557600080fd5b506100be6103d5565b6040516100cb9190610f20565b60405180910390f35b3480156100e057600080fd5b506100fb60048036038101906100f69190610cdf565b6103ff565b6040516101089190610fd6565b60405180910390f35b34801561011d57600080fd5b5061013860048036038101906101339190610d08565b610526565b6040516101459190610f3b565b60405180910390f35b34801561015a57600080fd5b5061017560048036038101906101709190610cdf565b610543565b005b34801561018357600080fd5b5061018c610810565b6040516101999190610ff1565b60405180910390f35b6101bc60048036038101906101b79190610ca3565b61081a565b005b3480156101ca57600080fd5b506101e560048036038101906101e09190610c7a565b610a06565b005b6101ef6103d5565b73ffffffffffffffffffffffffffffffffffffffff163373ffffffffffffffffffffffffffffffffffffffff161461025c576040517f08c379a000000000000000000000000000000000000000000000000000000000815260040161025390610fb6565b60405180910390fd5b61026581610a87565b6102a4576040517f08c379a000000000000000000000000000000000000000000000000000000000815260040161029b90610f56565b60405180910390fd5b60008060008381526020019081526020016000209050600060028111156102f4577f4e487b7100000000000000000000000000000000000000000000000000000000600052602160045260246000fd5b8160030160149054906101000a900460ff16600281111561033e577f4e487b7100000000000000000000000000000000000000000000000000000000600052602160045260246000fd5b1461037e576040517f08c379a000000000000000000000000000000000000000000000000000000000815260040161037590610f96565b60405180910390fd5b60018160030160146101000a81548160ff021916908360028111156103cc577f4e487b7100000000000000000000000000000000000000000000000000000000600052602160045260246000fd5b02179055505050565b6000600360009054906101000a900473ffffffffffffffffffffffffffffffffffffffff16905090565b610407610ba6565b6000808381526020019081526020016000206040518060a00160405290816000820154815260200160018201548152602001600282015481526020016003820160009054906101000a900473ffffffffffffffffffffffffffffffffffffffff1673ffffffffffffffffffffffffffffffffffffffff1673ffffffffffffffffffffffffffffffffffffffff1681526020016003820160149054906101000a900460ff1660028111156104e3577f4e487b7100000000000000000000000000000000000000000000000000000000600052602160045260246000fd5b600281111561051b577f4e487b7100000000000000000000000000000000000000000000000000000000600052602160045260246000fd5b815250509050919050565b600060016000838152602001908152602001600020549050919050565b61054b6103d5565b73ffffffffffffffffffffffffffffffffffffffff163373ffffffffffffffffffffffffffffffffffffffff16146105b8576040517f08c379a00000000000000000000000000000000000000000000000000000000081526004016105af90610fb6565b60405180910390fd5b6105c181610a87565b610600576040517f08c379a00000000000000000000000000000000000000000000000000000000081526004016105f790610f56565b60405180910390fd5b6000806000838152602001908152602001600020905060006002811115610650577f4e487b7100000000000000000000000000000000000000000000000000000000600052602160045260246000fd5b8160030160149054906101000a900460ff16600281111561069a577f4e487b7100000000000000000000000000000000000000000000000000000000600052602160045260246000fd5b146106da576040517f08c379a00000000000000000000000000000000000000000000000000000000081526004016106d190610f96565b60405180910390fd5b60008160030160009054906101000a900473ffffffffffffffffffffffffffffffffffffffff1673ffffffffffffffffffffffffffffffffffffffff16826001015460405161072890610f0b565b60006040518083038185875af1925050503d8060008114610765576040519150601f19603f3d011682016040523d82523d6000602084013e61076a565b606091505b50509050806107ae576040517f08c379a00000000000000000000000000000000000000000000000000000000081526004016107a590610f76565b60405180910390fd5b60028260030160146101000a81548160ff021916908360028111156107fc577f4e487b7100000000000000000000000000000000000000000000000000000000600052602160045260246000fd5b021790555060008260010181905550505050565b6000600254905090565b6000823360405160200161082f929190610edf565b60405160208183030381529060405280519060200120905061085081610af5565b15610887576040517fb0fc2d9700000000000000000000000000000000000000000000000000000000815260040160405180910390fd5b60006002600081548092919061089c906110bf565b9190505590508160016000838152602001908152602001600020819055506040518060a001604052808281526020013481526020018481526020013373ffffffffffffffffffffffffffffffffffffffff1681526020016000600281111561092d577f4e487b7100000000000000000000000000000000000000000000000000000000600052602160045260246000fd5b81525060008084815260200190815260200160002060008201518160000155602082015181600101556040820151816002015560608201518160030160006101000a81548173ffffffffffffffffffffffffffffffffffffffff021916908373ffffffffffffffffffffffffffffffffffffffff16021790555060808201518160030160146101000a81548160ff021916908360028111156109f8577f4e487b7100000000000000000000000000000000000000000000000000000000600052602160045260246000fd5b021790555090505050505050565b610a0e6103d5565b73ffffffffffffffffffffffffffffffffffffffff163373ffffffffffffffffffffffffffffffffffffffff1614610a7b576040517f08c379a0000000000000000000000000000000000000000000000000000000008152600401610a7290610fb6565b60405180910390fd5b610a8481610b62565b50565b60008073ffffffffffffffffffffffffffffffffffffffff1660008084815260200190815260200160002060030160009054906101000a900473ffffffffffffffffffffffffffffffffffffffff1673ffffffffffffffffffffffffffffffffffffffff1614159050919050565b60003373ffffffffffffffffffffffffffffffffffffffff1660008084815260200190815260200160002060030160009054906101000a900473ffffffffffffffffffffffffffffffffffffffff1673ffffffffffffffffffffffffffffffffffffffff16149050919050565b80600360006101000a81548173ffffffffffffffffffffffffffffffffffffffff021916908373ffffffffffffffffffffffffffffffffffffffff16021790555050565b6040518060a00160405280600081526020016000815260200160008019168152602001600073ffffffffffffffffffffffffffffffffffffffff16815260200160006002811115610c20577f4e487b7100000000000000000000000000000000000000000000000000000000600052602160045260246000fd5b81525090565b600081359050610c358161125c565b92915050565b600081359050610c4a81611273565b92915050565b600081359050610c5f8161128a565b92915050565b600081359050610c74816112a1565b92915050565b600060208284031215610c8c57600080fd5b6000610c9a84828501610c26565b91505092915050565b60008060408385031215610cb657600080fd5b6000610cc485828601610c3b565b9250506020610cd585828601610c50565b9150509250929050565b600060208284031215610cf157600080fd5b6000610cff84828501610c50565b91505092915050565b600060208284031215610d1a57600080fd5b6000610d2884828501610c65565b91505092915050565b610d3a81611028565b82525050565b610d4981611028565b82525050565b610d60610d5b82611028565b611108565b82525050565b610d77610d728261103a565b61111a565b82525050565b610d8681611066565b82525050565b610d9581611066565b82525050565b610da4816110ad565b82525050565b6000610db7601583611017565b9150610dc2826111a1565b602082019050919050565b6000610dda601083611017565b9150610de5826111ca565b602082019050919050565b6000610dfd600d83611017565b9150610e08826111f3565b602082019050919050565b6000610e2060008361100c565b9150610e2b8261121c565b600082019050919050565b6000610e43601a83611017565b9150610e4e8261121f565b602082019050919050565b60a082016000820151610e6f6000850182610ec1565b506020820151610e826020850182610ec1565b506040820151610e956040850182610d7d565b506060820151610ea86060850182610d31565b506080820151610ebb6080850182610d9b565b50505050565b610eca816110a3565b82525050565b610ed9816110a3565b82525050565b6000610eeb8285610d66565b601082019150610efb8284610d4f565b6014820191508190509392505050565b6000610f1682610e13565b9150819050919050565b6000602082019050610f356000830184610d40565b92915050565b6000602082019050610f506000830184610d8c565b92915050565b60006020820190508181036000830152610f6f81610daa565b9050919050565b60006020820190508181036000830152610f8f81610dcd565b9050919050565b60006020820190508181036000830152610faf81610df0565b9050919050565b60006020820190508181036000830152610fcf81610e36565b9050919050565b600060a082019050610feb6000830184610e59565b92915050565b60006020820190506110066000830184610ed0565b92915050565b600081905092915050565b600082825260208201905092915050565b600061103382611083565b9050919050565b60007fffffffffffffffffffffffffffffffff0000000000000000000000000000000082169050919050565b6000819050919050565b600081905061107e82611248565b919050565b600073ffffffffffffffffffffffffffffffffffffffff82169050919050565b6000819050919050565b60006110b882611070565b9050919050565b60006110ca826110a3565b91507fffffffffffffffffffffffffffffffffffffffffffffffffffffffffffffffff8214156110fd576110fc611136565b5b600182019050919050565b600061111382611124565b9050919050565b6000819050919050565b600061112f82611194565b9050919050565b7f4e487b7100000000000000000000000000000000000000000000000000000000600052601160045260246000fd5b7f4e487b7100000000000000000000000000000000000000000000000000000000600052602160045260246000fd5b60008160601b9050919050565b7f436f75727365206973206e6f7420637265617465640000000000000000000000600082015250565b7f5472616e73666572206661696c65642100000000000000000000000000000000600082015250565b7f496e76616c696420737461746500000000000000000000000000000000000000600082015250565b50565b7f4f6e6c79206f776e6572206f662074686520636f6e7472616374000000000000600082015250565b6003811061125957611258611165565b5b50565b61126581611028565b811461127057600080fd5b50565b61127c8161103a565b811461128757600080fd5b50565b61129381611066565b811461129e57600080fd5b50565b6112aa816110a3565b81146112b557600080fd5b5056fea26469706673582212209f7cc3a0a141c5434b93f23ef9df1b9b70e29b2bc0cc96140a8ea23a096839fb64736f6c63430008040033",
  "immutableReferences": {},
  "source": "// SPDX-License-Identifier: MIT\r\npragma solidity >=0.4.22 <0.9.0;\r\n\r\ncontract CourseMarketplace {\r\n\r\n    enum State {\r\n        Purchased,\r\n        Activated,\r\n        Deactivated\r\n    }\r\n\r\n    struct Course {\r\n        uint id;\r\n        uint price;\r\n        bytes32 proof;\r\n        address owner;\r\n        State state;\r\n    }\r\n\r\n    mapping(bytes32 => Course) private ownedCourses;\r\n\r\n    mapping(uint => bytes32) private ownedCourseHash;\r\n\r\n    uint private totalOwnedCourses;\r\n\r\n    address payable private owner;\r\n\r\n    constructor() {\r\n        setContractOwner(msg.sender);\r\n    }\r\n\r\n    /// Course already has an owner!\r\n    error CourseHasOwner();\r\n\r\n    modifier onlyOwner() {\r\n        require(msg.sender == getContractOwner(), \"Only owner of the contract\");\r\n        _;\r\n    }\r\n\r\n    function purchaseCourse(\r\n        bytes16 courseId,\r\n        bytes32 proof\r\n    ) external payable \r\n    {\r\n        bytes32 courseHash = keccak256(abi.encodePacked(courseId, msg.sender));\r\n        if (hasCourseOwnership(courseHash)) {\r\n            revert CourseHasOwner();\r\n        }\r\n        uint id = totalOwnedCourses++;\r\n        ownedCourseHash[id] = courseHash;\r\n        ownedCourses[courseHash] = Course({\r\n            id: id,\r\n            price: msg.value,\r\n            proof: proof,\r\n            owner: msg.sender,\r\n            state: State.Purchased\r\n        });\r\n    }\r\n\r\n    function activateCourse(bytes32 courseHash) external onlyOwner {\r\n        require(isCourseCreated(courseHash), \"Course is not created\");\r\n        Course storage course = ownedCourses[courseHash];\r\n        require(course.state == State.Purchased, \"Invalid state\");\r\n        course.state = State.Activated;\r\n    }\r\n\r\n    function deactivateCourse(bytes32 courseHash) external onlyOwner {\r\n        require(isCourseCreated(courseHash), \"Course is not created\");\r\n        Course storage course = ownedCourses[courseHash];\r\n        require(course.state == State.Purchased, \"Invalid state\");\r\n\r\n        (bool success, ) = course.owner.call{value: course.price}(\"\");\r\n        require(success, \"Transfer failed!\");\r\n\r\n        course.state = State.Deactivated;\r\n        course.price = 0;\r\n    }\r\n\r\n    function transferOwnership(address newOwner) external onlyOwner {\r\n        setContractOwner(newOwner);\r\n    }\r\n\r\n    function getCourseCount() external view returns(uint) {\r\n        return totalOwnedCourses;\r\n    }\r\n\r\n    function getCourseHashAtIndex(uint index) external view returns(bytes32) {\r\n        return ownedCourseHash[index];\r\n    }\r\n\r\n    function getCourseByHash(bytes32 courseHash) external view returns(Course memory){\r\n        return ownedCourses[courseHash];\r\n    } \r\n\r\n    function getContractOwner() public view returns(address) {\r\n        return owner;\r\n    }\r\n\r\n    function setContractOwner(address newOwner) private {\r\n        owner = payable(newOwner);\r\n    }\r\n\r\n    function isCourseCreated(bytes32 courseHash) private view returns(bool){\r\n        return ownedCourses[courseHash].owner != 0x0000000000000000000000000000000000000000;\r\n    }\r\n\r\n    function hasCourseOwnership(bytes32 courseHash) private view returns(bool) {\r\n        return ownedCourses[courseHash].owner == msg.sender;\r\n    }\r\n}",
  "sourcePath": "C:\\Users\\magil\\Desktop\\web3\\SolCourse\\blockchain\\marketplace-eth\\contracts\\CourseMarketplace.sol",
  "compiler": {
    "name": "solc",
    "version": "0.8.4+commit.c7e474f2.Emscripten.clang"
  },
  "schemaVersion": "3.4.11",
  "updatedAt": "2023-04-09T12:25:11.252Z",
  "networkType": "ethereum",
  "devdoc": {
    "kind": "dev",
    "methods": {},
    "version": 1
  },
  "userdoc": {
    "errors": {
      "CourseHasOwner()": [
        {
          "notice": "Course already has an owner!"
        }
      ]
    },
    "kind": "user",
    "methods": {},
    "version": 1
  }
}