{
  "contractName": "CourseMarketplace",
  "abi": [
    {
      "inputs": [],
      "stateMutability": "nonpayable",
      "type": "constructor"
    },
    {
      "inputs": [],
      "name": "CourseHasOwner",
      "type": "error"
    },
    {
      "inputs": [
        {
          "internalType": "bytes16",
          "name": "courseId",
          "type": "bytes16"
        },
        {
          "internalType": "bytes32",
          "name": "proof",
          "type": "bytes32"
        }
      ],
      "name": "purchaseCourse",
      "outputs": [],
      "stateMutability": "payable",
      "type": "function",
      "payable": true
    },
    {
      "inputs": [
        {
          "internalType": "bytes32",
          "name": "courseHash",
          "type": "bytes32"
        }
      ],
      "name": "repurchaseCourse",
      "outputs": [],
      "stateMutability": "payable",
      "type": "function",
      "payable": true
    },
    {
      "inputs": [
        {
          "internalType": "bytes32",
          "name": "courseHash",
          "type": "bytes32"
        }
      ],
      "name": "activateCourse",
      "outputs": [],
      "stateMutability": "nonpayable",
      "type": "function"
    },
    {
      "inputs": [
        {
          "internalType": "bytes32",
          "name": "courseHash",
          "type": "bytes32"
        }
      ],
      "name": "deactivateCourse",
      "outputs": [],
      "stateMutability": "nonpayable",
      "type": "function"
    },
    {
      "inputs": [
        {
          "internalType": "address",
          "name": "newOwner",
          "type": "address"
        }
      ],
      "name": "transferOwnership",
      "outputs": [],
      "stateMutability": "nonpayable",
      "type": "function"
    },
    {
      "inputs": [],
      "name": "getCourseCount",
      "outputs": [
        {
          "internalType": "uint256",
          "name": "",
          "type": "uint256"
        }
      ],
      "stateMutability": "view",
      "type": "function",
      "constant": true
    },
    {
      "inputs": [
        {
          "internalType": "uint256",
          "name": "index",
          "type": "uint256"
        }
      ],
      "name": "getCourseHashAtIndex",
      "outputs": [
        {
          "internalType": "bytes32",
          "name": "",
          "type": "bytes32"
        }
      ],
      "stateMutability": "view",
      "type": "function",
      "constant": true
    },
    {
      "inputs": [
        {
          "internalType": "bytes32",
          "name": "courseHash",
          "type": "bytes32"
        }
      ],
      "name": "getCourseByHash",
      "outputs": [
        {
          "components": [
            {
              "internalType": "uint256",
              "name": "id",
              "type": "uint256"
            },
            {
              "internalType": "uint256",
              "name": "price",
              "type": "uint256"
            },
            {
              "internalType": "bytes32",
              "name": "proof",
              "type": "bytes32"
            },
            {
              "internalType": "address",
              "name": "owner",
              "type": "address"
            },
            {
              "internalType": "enum CourseMarketplace.State",
              "name": "state",
              "type": "uint8"
            }
          ],
          "internalType": "struct CourseMarketplace.Course",
          "name": "",
          "type": "tuple"
        }
      ],
      "stateMutability": "view",
      "type": "function",
      "constant": true
    },
    {
      "inputs": [],
      "name": "getContractOwner",
      "outputs": [
        {
          "internalType": "address",
          "name": "",
          "type": "address"
        }
      ],
      "stateMutability": "view",
      "type": "function",
      "constant": true
    }
  ],
  "bytecode": "0x608060405234801561001057600080fd5b506100203361002560201b60201c565b610069565b80600360006101000a81548173ffffffffffffffffffffffffffffffffffffffff021916908373ffffffffffffffffffffffffffffffffffffffff16021790555050565b61154a806100786000396000f3fe6080604052600436106100865760003560e01c80636d11290b116100595780636d11290b14610138578063935d7e6d1461017557806396cfda061461019e578063d76821cb146101c9578063f2fde38b146101e557610086565b8063392625721461008b578063442890d5146100b45780636136e1eb146100df57806362e4e6ac146100fb575b600080fd5b34801561009757600080fd5b506100b260048036038101906100ad9190610ecf565b61020e565b005b3480156100c057600080fd5b506100c96103fc565b6040516100d69190611133565b60405180910390f35b6100f960048036038101906100f49190610ecf565b610426565b005b34801561010757600080fd5b50610122600480360381019061011d9190610ecf565b6105ef565b60405161012f9190611209565b60405180910390f35b34801561014457600080fd5b5061015f600480360381019061015a9190610ef8565b610716565b60405161016c919061114e565b60405180910390f35b34801561018157600080fd5b5061019c60048036038101906101979190610ecf565b610733565b005b3480156101aa57600080fd5b506101b3610a00565b6040516101c09190611224565b60405180910390f35b6101e360048036038101906101de9190610e93565b610a0a565b005b3480156101f157600080fd5b5061020c60048036038101906102079190610e6a565b610bf6565b005b6102166103fc565b73ffffffffffffffffffffffffffffffffffffffff163373ffffffffffffffffffffffffffffffffffffffff1614610283576040517f08c379a000000000000000000000000000000000000000000000000000000000815260040161027a906111c9565b60405180910390fd5b61028c81610c77565b6102cb576040517f08c379a00000000000000000000000000000000000000000000000000000000081526004016102c290611169565b60405180910390fd5b600080600083815260200190815260200160002090506000600281111561031b577f4e487b7100000000000000000000000000000000000000000000000000000000600052602160045260246000fd5b8160030160149054906101000a900460ff166002811115610365577f4e487b7100000000000000000000000000000000000000000000000000000000600052602160045260246000fd5b146103a5576040517f08c379a000000000000000000000000000000000000000000000000000000000815260040161039c906111a9565b60405180910390fd5b60018160030160146101000a81548160ff021916908360028111156103f3577f4e487b7100000000000000000000000000000000000000000000000000000000600052602160045260246000fd5b02179055505050565b6000600360009054906101000a900473ffffffffffffffffffffffffffffffffffffffff16905090565b61042f81610c77565b61046e576040517f08c379a000000000000000000000000000000000000000000000000000000000815260040161046590611169565b60405180910390fd5b61047781610ce5565b6104b6576040517f08c379a00000000000000000000000000000000000000000000000000000000081526004016104ad906111e9565b60405180910390fd5b60008060008381526020019081526020016000209050600280811115610505577f4e487b7100000000000000000000000000000000000000000000000000000000600052602160045260246000fd5b8160030160149054906101000a900460ff16600281111561054f577f4e487b7100000000000000000000000000000000000000000000000000000000600052602160045260246000fd5b1461058f576040517f08c379a0000000000000000000000000000000000000000000000000000000008152600401610586906111a9565b60405180910390fd5b60008160030160146101000a81548160ff021916908360028111156105dd577f4e487b7100000000000000000000000000000000000000000000000000000000600052602160045260246000fd5b02179055503481600101819055505050565b6105f7610d96565b6000808381526020019081526020016000206040518060a00160405290816000820154815260200160018201548152602001600282015481526020016003820160009054906101000a900473ffffffffffffffffffffffffffffffffffffffff1673ffffffffffffffffffffffffffffffffffffffff1673ffffffffffffffffffffffffffffffffffffffff1681526020016003820160149054906101000a900460ff1660028111156106d3577f4e487b7100000000000000000000000000000000000000000000000000000000600052602160045260246000fd5b600281111561070b577f4e487b7100000000000000000000000000000000000000000000000000000000600052602160045260246000fd5b815250509050919050565b600060016000838152602001908152602001600020549050919050565b61073b6103fc565b73ffffffffffffffffffffffffffffffffffffffff163373ffffffffffffffffffffffffffffffffffffffff16146107a8576040517f08c379a000000000000000000000000000000000000000000000000000000000815260040161079f906111c9565b60405180910390fd5b6107b181610c77565b6107f0576040517f08c379a00000000000000000000000000000000000000000000000000000000081526004016107e790611169565b60405180910390fd5b6000806000838152602001908152602001600020905060006002811115610840577f4e487b7100000000000000000000000000000000000000000000000000000000600052602160045260246000fd5b8160030160149054906101000a900460ff16600281111561088a577f4e487b7100000000000000000000000000000000000000000000000000000000600052602160045260246000fd5b146108ca576040517f08c379a00000000000000000000000000000000000000000000000000000000081526004016108c1906111a9565b60405180910390fd5b60008160030160009054906101000a900473ffffffffffffffffffffffffffffffffffffffff1673ffffffffffffffffffffffffffffffffffffffff1682600101546040516109189061111e565b60006040518083038185875af1925050503d8060008114610955576040519150601f19603f3d011682016040523d82523d6000602084013e61095a565b606091505b505090508061099e576040517f08c379a000000000000000000000000000000000000000000000000000000000815260040161099590611189565b60405180910390fd5b60028260030160146101000a81548160ff021916908360028111156109ec577f4e487b7100000000000000000000000000000000000000000000000000000000600052602160045260246000fd5b021790555060008260010181905550505050565b6000600254905090565b60008233604051602001610a1f9291906110f2565b604051602081830303815290604052805190602001209050610a4081610ce5565b15610a77576040517fb0fc2d9700000000000000000000000000000000000000000000000000000000815260040160405180910390fd5b600060026000815480929190610a8c906112f2565b9190505590508160016000838152602001908152602001600020819055506040518060a001604052808281526020013481526020018481526020013373ffffffffffffffffffffffffffffffffffffffff16815260200160006002811115610b1d577f4e487b7100000000000000000000000000000000000000000000000000000000600052602160045260246000fd5b81525060008084815260200190815260200160002060008201518160000155602082015181600101556040820151816002015560608201518160030160006101000a81548173ffffffffffffffffffffffffffffffffffffffff021916908373ffffffffffffffffffffffffffffffffffffffff16021790555060808201518160030160146101000a81548160ff02191690836002811115610be8577f4e487b7100000000000000000000000000000000000000000000000000000000600052602160045260246000fd5b021790555090505050505050565b610bfe6103fc565b73ffffffffffffffffffffffffffffffffffffffff163373ffffffffffffffffffffffffffffffffffffffff1614610c6b576040517f08c379a0000000000000000000000000000000000000000000000000000000008152600401610c62906111c9565b60405180910390fd5b610c7481610d52565b50565b60008073ffffffffffffffffffffffffffffffffffffffff1660008084815260200190815260200160002060030160009054906101000a900473ffffffffffffffffffffffffffffffffffffffff1673ffffffffffffffffffffffffffffffffffffffff1614159050919050565b60003373ffffffffffffffffffffffffffffffffffffffff1660008084815260200190815260200160002060030160009054906101000a900473ffffffffffffffffffffffffffffffffffffffff1673ffffffffffffffffffffffffffffffffffffffff16149050919050565b80600360006101000a81548173ffffffffffffffffffffffffffffffffffffffff021916908373ffffffffffffffffffffffffffffffffffffffff16021790555050565b6040518060a00160405280600081526020016000815260200160008019168152602001600073ffffffffffffffffffffffffffffffffffffffff16815260200160006002811115610e10577f4e487b7100000000000000000000000000000000000000000000000000000000600052602160045260246000fd5b81525090565b600081359050610e25816114b8565b92915050565b600081359050610e3a816114cf565b92915050565b600081359050610e4f816114e6565b92915050565b600081359050610e64816114fd565b92915050565b600060208284031215610e7c57600080fd5b6000610e8a84828501610e16565b91505092915050565b60008060408385031215610ea657600080fd5b6000610eb485828601610e2b565b9250506020610ec585828601610e40565b9150509250929050565b600060208284031215610ee157600080fd5b6000610eef84828501610e40565b91505092915050565b600060208284031215610f0a57600080fd5b6000610f1884828501610e55565b91505092915050565b610f2a8161125b565b82525050565b610f398161125b565b82525050565b610f50610f4b8261125b565b61133b565b82525050565b610f67610f628261126d565b61134d565b82525050565b610f7681611299565b82525050565b610f8581611299565b82525050565b610f94816112e0565b82525050565b6000610fa760158361124a565b9150610fb2826113d4565b602082019050919050565b6000610fca60108361124a565b9150610fd5826113fd565b602082019050919050565b6000610fed600d8361124a565b9150610ff882611426565b602082019050919050565b600061101060008361123f565b915061101b8261144f565b600082019050919050565b6000611033601a8361124a565b915061103e82611452565b602082019050919050565b6000611056601a8361124a565b91506110618261147b565b602082019050919050565b60a08201600082015161108260008501826110d4565b50602082015161109560208501826110d4565b5060408201516110a86040850182610f6d565b5060608201516110bb6060850182610f21565b5060808201516110ce6080850182610f8b565b50505050565b6110dd816112d6565b82525050565b6110ec816112d6565b82525050565b60006110fe8285610f56565b60108201915061110e8284610f3f565b6014820191508190509392505050565b600061112982611003565b9150819050919050565b60006020820190506111486000830184610f30565b92915050565b60006020820190506111636000830184610f7c565b92915050565b6000602082019050818103600083015261118281610f9a565b9050919050565b600060208201905081810360008301526111a281610fbd565b9050919050565b600060208201905081810360008301526111c281610fe0565b9050919050565b600060208201905081810360008301526111e281611026565b9050919050565b6000602082019050818103600083015261120281611049565b9050919050565b600060a08201905061121e600083018461106c565b92915050565b600060208201905061123960008301846110e3565b92915050565b600081905092915050565b600082825260208201905092915050565b6000611266826112b6565b9050919050565b60007fffffffffffffffffffffffffffffffff0000000000000000000000000000000082169050919050565b6000819050919050565b60008190506112b1826114a4565b919050565b600073ffffffffffffffffffffffffffffffffffffffff82169050919050565b6000819050919050565b60006112eb826112a3565b9050919050565b60006112fd826112d6565b91507fffffffffffffffffffffffffffffffffffffffffffffffffffffffffffffffff8214156113305761132f611369565b5b600182019050919050565b600061134682611357565b9050919050565b6000819050919050565b6000611362826113c7565b9050919050565b7f4e487b7100000000000000000000000000000000000000000000000000000000600052601160045260246000fd5b7f4e487b7100000000000000000000000000000000000000000000000000000000600052602160045260246000fd5b60008160601b9050919050565b7f436f75727365206973206e6f7420637265617465640000000000000000000000600082015250565b7f5472616e73666572206661696c65642100000000000000000000000000000000600082015250565b7f496e76616c696420737461746500000000000000000000000000000000000000600082015250565b50565b7f4f6e6c79206f776e6572206f662074686520636f6e7472616374000000000000600082015250565b7f596f7520617265206e6f74206120636f75727365206f776e6572000000000000600082015250565b600381106114b5576114b4611398565b5b50565b6114c18161125b565b81146114cc57600080fd5b50565b6114d88161126d565b81146114e357600080fd5b50565b6114ef81611299565b81146114fa57600080fd5b50565b611506816112d6565b811461151157600080fd5b5056fea2646970667358221220825e18257c5befc9511ab904a72d8afaf2ad04db7bafc597836d52c4d2f7e1eb64736f6c63430008040033",
  "immutableReferences": {},
  "source": "// SPDX-License-Identifier: MIT\r\npragma solidity >=0.4.22 <0.9.0;\r\n\r\ncontract CourseMarketplace {\r\n\r\n    enum State {\r\n        Purchased,\r\n        Activated,\r\n        Deactivated\r\n    }\r\n\r\n    struct Course {\r\n        uint id;\r\n        uint price;\r\n        bytes32 proof;\r\n        address owner;\r\n        State state;\r\n    }\r\n\r\n    mapping(bytes32 => Course) private ownedCourses;\r\n\r\n    mapping(uint => bytes32) private ownedCourseHash;\r\n\r\n    uint private totalOwnedCourses;\r\n\r\n    address payable private owner;\r\n\r\n    constructor() {\r\n        setContractOwner(msg.sender);\r\n    }\r\n\r\n    /// Course already has an owner!\r\n    error CourseHasOwner();\r\n\r\n    modifier onlyOwner() {\r\n        require(msg.sender == getContractOwner(), \"Only owner of the contract\");\r\n        _;\r\n    }\r\n\r\n    function purchaseCourse(\r\n        bytes16 courseId,\r\n        bytes32 proof\r\n    ) external payable \r\n    {\r\n        bytes32 courseHash = keccak256(abi.encodePacked(courseId, msg.sender));\r\n        if (hasCourseOwnership(courseHash)) {\r\n            revert CourseHasOwner();\r\n        }\r\n        uint id = totalOwnedCourses++;\r\n        ownedCourseHash[id] = courseHash;\r\n        ownedCourses[courseHash] = Course({\r\n            id: id,\r\n            price: msg.value,\r\n            proof: proof,\r\n            owner: msg.sender,\r\n            state: State.Purchased\r\n        });\r\n    }\r\n\r\n    function repurchaseCourse(bytes32 courseHash) external payable {\r\n        require(isCourseCreated(courseHash), \"Course is not created\");\r\n        require(hasCourseOwnership(courseHash), \"You are not a course owner\");\r\n        Course storage course = ownedCourses[courseHash];\r\n        require(course.state == State.Deactivated, \"Invalid state\");\r\n\r\n        course.state = State.Purchased;\r\n        course.price = msg.value;\r\n    }\r\n\r\n    function activateCourse(bytes32 courseHash) external onlyOwner {\r\n        require(isCourseCreated(courseHash), \"Course is not created\");\r\n        Course storage course = ownedCourses[courseHash];\r\n        require(course.state == State.Purchased, \"Invalid state\");\r\n        course.state = State.Activated;\r\n    }\r\n\r\n    function deactivateCourse(bytes32 courseHash) external onlyOwner {\r\n        require(isCourseCreated(courseHash), \"Course is not created\");\r\n        Course storage course = ownedCourses[courseHash];\r\n        require(course.state == State.Purchased, \"Invalid state\");\r\n\r\n        (bool success, ) = course.owner.call{value: course.price}(\"\");\r\n        require(success, \"Transfer failed!\");\r\n\r\n        course.state = State.Deactivated;\r\n        course.price = 0;\r\n    }\r\n\r\n    function transferOwnership(address newOwner) external onlyOwner {\r\n        setContractOwner(newOwner);\r\n    }\r\n\r\n    function getCourseCount() external view returns(uint) {\r\n        return totalOwnedCourses;\r\n    }\r\n\r\n    function getCourseHashAtIndex(uint index) external view returns(bytes32) {\r\n        return ownedCourseHash[index];\r\n    }\r\n\r\n    function getCourseByHash(bytes32 courseHash) external view returns(Course memory){\r\n        return ownedCourses[courseHash];\r\n    } \r\n\r\n    function getContractOwner() public view returns(address) {\r\n        return owner;\r\n    }\r\n\r\n    function setContractOwner(address newOwner) private {\r\n        owner = payable(newOwner);\r\n    }\r\n\r\n    function isCourseCreated(bytes32 courseHash) private view returns(bool){\r\n        return ownedCourses[courseHash].owner != 0x0000000000000000000000000000000000000000;\r\n    }\r\n\r\n    function hasCourseOwnership(bytes32 courseHash) private view returns(bool) {\r\n        return ownedCourses[courseHash].owner == msg.sender;\r\n    }\r\n}",
  "sourcePath": "C:\\Users\\magil\\Desktop\\web3\\SolCourse\\blockchain\\marketplace-eth\\contracts\\CourseMarketplace.sol",
  "compiler": {
    "name": "solc",
    "version": "0.8.4+commit.c7e474f2.Emscripten.clang"
  },
  "schemaVersion": "3.4.11",
  "updatedAt": "2023-04-12T10:06:56.218Z",
  "networkType": "ethereum",
  "devdoc": {
    "kind": "dev",
    "methods": {},
    "version": 1
  },
  "userdoc": {
    "errors": {
      "CourseHasOwner()": [
        {
          "notice": "Course already has an owner!"
        }
      ]
    },
    "kind": "user",
    "methods": {},
    "version": 1
  }
}