{
  "contractName": "CourseMarketplace",
  "abi": [
    {
      "inputs": [],
      "stateMutability": "nonpayable",
      "type": "constructor"
    },
    {
      "inputs": [],
      "name": "CourseHasOwner",
      "type": "error"
    },
    {
      "stateMutability": "payable",
      "type": "receive"
    },
    {
      "inputs": [
        {
          "internalType": "uint256",
          "name": "amount",
          "type": "uint256"
        }
      ],
      "name": "withdraw",
      "outputs": [],
      "stateMutability": "nonpayable",
      "type": "function"
    },
    {
      "inputs": [],
      "name": "emergencyWithdraw",
      "outputs": [],
      "stateMutability": "nonpayable",
      "type": "function"
    },
    {
      "inputs": [],
      "name": "stopContract",
      "outputs": [],
      "stateMutability": "nonpayable",
      "type": "function"
    },
    {
      "inputs": [],
      "name": "resumeContract",
      "outputs": [],
      "stateMutability": "nonpayable",
      "type": "function"
    },
    {
      "inputs": [
        {
          "internalType": "bytes16",
          "name": "courseId",
          "type": "bytes16"
        },
        {
          "internalType": "bytes32",
          "name": "proof",
          "type": "bytes32"
        }
      ],
      "name": "purchaseCourse",
      "outputs": [],
      "stateMutability": "payable",
      "type": "function"
    },
    {
      "inputs": [
        {
          "internalType": "bytes32",
          "name": "courseHash",
          "type": "bytes32"
        }
      ],
      "name": "repurchaseCourse",
      "outputs": [],
      "stateMutability": "payable",
      "type": "function"
    },
    {
      "inputs": [
        {
          "internalType": "bytes32",
          "name": "courseHash",
          "type": "bytes32"
        }
      ],
      "name": "activateCourse",
      "outputs": [],
      "stateMutability": "nonpayable",
      "type": "function"
    },
    {
      "inputs": [
        {
          "internalType": "bytes32",
          "name": "courseHash",
          "type": "bytes32"
        }
      ],
      "name": "deactivateCourse",
      "outputs": [],
      "stateMutability": "nonpayable",
      "type": "function"
    },
    {
      "inputs": [
        {
          "internalType": "address",
          "name": "newOwner",
          "type": "address"
        }
      ],
      "name": "transferOwnership",
      "outputs": [],
      "stateMutability": "nonpayable",
      "type": "function"
    },
    {
      "inputs": [],
      "name": "getCourseCount",
      "outputs": [
        {
          "internalType": "uint256",
          "name": "",
          "type": "uint256"
        }
      ],
      "stateMutability": "view",
      "type": "function"
    },
    {
      "inputs": [
        {
          "internalType": "uint256",
          "name": "index",
          "type": "uint256"
        }
      ],
      "name": "getCourseHashAtIndex",
      "outputs": [
        {
          "internalType": "bytes32",
          "name": "",
          "type": "bytes32"
        }
      ],
      "stateMutability": "view",
      "type": "function"
    },
    {
      "inputs": [
        {
          "internalType": "bytes32",
          "name": "courseHash",
          "type": "bytes32"
        }
      ],
      "name": "getCourseByHash",
      "outputs": [
        {
          "components": [
            {
              "internalType": "uint256",
              "name": "id",
              "type": "uint256"
            },
            {
              "internalType": "uint256",
              "name": "price",
              "type": "uint256"
            },
            {
              "internalType": "bytes32",
              "name": "proof",
              "type": "bytes32"
            },
            {
              "internalType": "address",
              "name": "owner",
              "type": "address"
            },
            {
              "internalType": "enum CourseMarketplace.State",
              "name": "state",
              "type": "uint8"
            }
          ],
          "internalType": "struct CourseMarketplace.Course",
          "name": "",
          "type": "tuple"
        }
      ],
      "stateMutability": "view",
      "type": "function"
    },
    {
      "inputs": [],
      "name": "getContractOwner",
      "outputs": [
        {
          "internalType": "address",
          "name": "",
          "type": "address"
        }
      ],
      "stateMutability": "view",
      "type": "function"
    }
  ],
  "bytecode": "0x608060405234801561001057600080fd5b506100203361004060201b60201c565b6000600360146101000a81548160ff021916908315150217905550610084565b80600360006101000a81548173ffffffffffffffffffffffffffffffffffffffff021916908373ffffffffffffffffffffffffffffffffffffffff16021790555050565b611d58806100936000396000f3fe6080604052600436106100c65760003560e01c80636d11290b1161007f578063c4bc5da511610059578063c4bc5da514610250578063d76821cb14610267578063db2e21bc14610283578063f2fde38b1461029a576100cd565b80636d11290b146101bf578063935d7e6d146101fc57806396cfda0614610225576100cd565b806312253a6c146100d25780632e1a7d4d146100e95780633926257214610112578063442890d51461013b5780636136e1eb1461016657806362e4e6ac14610182576100cd565b366100cd57005b600080fd5b3480156100de57600080fd5b506100e76102c3565b005b3480156100f557600080fd5b50610110600480360381019061010b9190611530565b610355565b005b34801561011e57600080fd5b5061013960048036038101906101349190611507565b6104df565b005b34801561014757600080fd5b5061015061071d565b60405161015d91906117f7565b60405180910390f35b610180600480360381019061017b9190611507565b610747565b005b34801561018e57600080fd5b506101a960048036038101906101a49190611507565b610960565b6040516101b6919061194d565b60405180910390f35b3480156101cb57600080fd5b506101e660048036038101906101e19190611530565b610a87565b6040516101f39190611812565b60405180910390f35b34801561020857600080fd5b50610223600480360381019061021e9190611507565b610aa4565b005b34801561023157600080fd5b5061023a610dc1565b6040516102479190611968565b60405180910390f35b34801561025c57600080fd5b50610265610dcb565b005b610281600480360381019061027c91906114cb565b610e5d565b005b34801561028f57600080fd5b50610298611099565b005b3480156102a657600080fd5b506102c160048036038101906102bc91906114a2565b61122e565b005b6102cb61071d565b73ffffffffffffffffffffffffffffffffffffffff163373ffffffffffffffffffffffffffffffffffffffff1614610338576040517f08c379a000000000000000000000000000000000000000000000000000000000815260040161032f9061190d565b60405180910390fd5b6001600360146101000a81548160ff021916908315150217905550565b61035d61071d565b73ffffffffffffffffffffffffffffffffffffffff163373ffffffffffffffffffffffffffffffffffffffff16146103ca576040517f08c379a00000000000000000000000000000000000000000000000000000000081526004016103c19061190d565b60405180910390fd5b4781111561040d576040517f08c379a00000000000000000000000000000000000000000000000000000000081526004016104049061186d565b60405180910390fd5b6000600360009054906101000a900473ffffffffffffffffffffffffffffffffffffffff1673ffffffffffffffffffffffffffffffffffffffff1682604051610455906117e2565b60006040518083038185875af1925050503d8060008114610492576040519150601f19603f3d011682016040523d82523d6000602084013e610497565b606091505b50509050806104db576040517f08c379a00000000000000000000000000000000000000000000000000000000081526004016104d29061184d565b60405180910390fd5b5050565b6104e761071d565b73ffffffffffffffffffffffffffffffffffffffff163373ffffffffffffffffffffffffffffffffffffffff1614610554576040517f08c379a000000000000000000000000000000000000000000000000000000000815260040161054b9061190d565b60405180910390fd5b600360149054906101000a900460ff16156105a4576040517f08c379a000000000000000000000000000000000000000000000000000000000815260040161059b9061182d565b60405180910390fd5b6105ad816112af565b6105ec576040517f08c379a00000000000000000000000000000000000000000000000000000000081526004016105e39061188d565b60405180910390fd5b600080600083815260200190815260200160002090506000600281111561063c577f4e487b7100000000000000000000000000000000000000000000000000000000600052602160045260246000fd5b8160030160149054906101000a900460ff166002811115610686577f4e487b7100000000000000000000000000000000000000000000000000000000600052602160045260246000fd5b146106c6576040517f08c379a00000000000000000000000000000000000000000000000000000000081526004016106bd906118cd565b60405180910390fd5b60018160030160146101000a81548160ff02191690836002811115610714577f4e487b7100000000000000000000000000000000000000000000000000000000600052602160045260246000fd5b02179055505050565b6000600360009054906101000a900473ffffffffffffffffffffffffffffffffffffffff16905090565b600360149054906101000a900460ff1615610797576040517f08c379a000000000000000000000000000000000000000000000000000000000815260040161078e9061182d565b60405180910390fd5b6107a0816112af565b6107df576040517f08c379a00000000000000000000000000000000000000000000000000000000081526004016107d69061188d565b60405180910390fd5b6107e88161131d565b610827576040517f08c379a000000000000000000000000000000000000000000000000000000000815260040161081e9061192d565b60405180910390fd5b60008060008381526020019081526020016000209050600280811115610876577f4e487b7100000000000000000000000000000000000000000000000000000000600052602160045260246000fd5b8160030160149054906101000a900460ff1660028111156108c0577f4e487b7100000000000000000000000000000000000000000000000000000000600052602160045260246000fd5b14610900576040517f08c379a00000000000000000000000000000000000000000000000000000000081526004016108f7906118cd565b60405180910390fd5b60008160030160146101000a81548160ff0219169083600281111561094e577f4e487b7100000000000000000000000000000000000000000000000000000000600052602160045260246000fd5b02179055503481600101819055505050565b6109686113ce565b6000808381526020019081526020016000206040518060a00160405290816000820154815260200160018201548152602001600282015481526020016003820160009054906101000a900473ffffffffffffffffffffffffffffffffffffffff1673ffffffffffffffffffffffffffffffffffffffff1673ffffffffffffffffffffffffffffffffffffffff1681526020016003820160149054906101000a900460ff166002811115610a44577f4e487b7100000000000000000000000000000000000000000000000000000000600052602160045260246000fd5b6002811115610a7c577f4e487b7100000000000000000000000000000000000000000000000000000000600052602160045260246000fd5b815250509050919050565b600060016000838152602001908152602001600020549050919050565b610aac61071d565b73ffffffffffffffffffffffffffffffffffffffff163373ffffffffffffffffffffffffffffffffffffffff1614610b19576040517f08c379a0000000000000000000000000000000000000000000000000000000008152600401610b109061190d565b60405180910390fd5b600360149054906101000a900460ff1615610b69576040517f08c379a0000000000000000000000000000000000000000000000000000000008152600401610b609061182d565b60405180910390fd5b610b72816112af565b610bb1576040517f08c379a0000000000000000000000000000000000000000000000000000000008152600401610ba89061188d565b60405180910390fd5b6000806000838152602001908152602001600020905060006002811115610c01577f4e487b7100000000000000000000000000000000000000000000000000000000600052602160045260246000fd5b8160030160149054906101000a900460ff166002811115610c4b577f4e487b7100000000000000000000000000000000000000000000000000000000600052602160045260246000fd5b14610c8b576040517f08c379a0000000000000000000000000000000000000000000000000000000008152600401610c82906118cd565b60405180910390fd5b60008160030160009054906101000a900473ffffffffffffffffffffffffffffffffffffffff1673ffffffffffffffffffffffffffffffffffffffff168260010154604051610cd9906117e2565b60006040518083038185875af1925050503d8060008114610d16576040519150601f19603f3d011682016040523d82523d6000602084013e610d1b565b606091505b5050905080610d5f576040517f08c379a0000000000000000000000000000000000000000000000000000000008152600401610d56906118ad565b60405180910390fd5b60028260030160146101000a81548160ff02191690836002811115610dad577f4e487b7100000000000000000000000000000000000000000000000000000000600052602160045260246000fd5b021790555060008260010181905550505050565b6000600254905090565b610dd361071d565b73ffffffffffffffffffffffffffffffffffffffff163373ffffffffffffffffffffffffffffffffffffffff1614610e40576040517f08c379a0000000000000000000000000000000000000000000000000000000008152600401610e379061190d565b60405180910390fd5b6000600360146101000a81548160ff021916908315150217905550565b600360149054906101000a900460ff1615610ead576040517f08c379a0000000000000000000000000000000000000000000000000000000008152600401610ea49061182d565b60405180910390fd5b60008233604051602001610ec29291906117b6565b604051602081830303815290604052805190602001209050610ee38161131d565b15610f1a576040517fb0fc2d9700000000000000000000000000000000000000000000000000000000815260040160405180910390fd5b600060026000815480929190610f2f90611a36565b9190505590508160016000838152602001908152602001600020819055506040518060a001604052808281526020013481526020018481526020013373ffffffffffffffffffffffffffffffffffffffff16815260200160006002811115610fc0577f4e487b7100000000000000000000000000000000000000000000000000000000600052602160045260246000fd5b81525060008084815260200190815260200160002060008201518160000155602082015181600101556040820151816002015560608201518160030160006101000a81548173ffffffffffffffffffffffffffffffffffffffff021916908373ffffffffffffffffffffffffffffffffffffffff16021790555060808201518160030160146101000a81548160ff0219169083600281111561108b577f4e487b7100000000000000000000000000000000000000000000000000000000600052602160045260246000fd5b021790555090505050505050565b6110a161071d565b73ffffffffffffffffffffffffffffffffffffffff163373ffffffffffffffffffffffffffffffffffffffff161461110e576040517f08c379a00000000000000000000000000000000000000000000000000000000081526004016111059061190d565b60405180910390fd5b600360149054906101000a900460ff1661115d576040517f08c379a0000000000000000000000000000000000000000000000000000000008152600401611154906118ed565b60405180910390fd5b6000600360009054906101000a900473ffffffffffffffffffffffffffffffffffffffff1673ffffffffffffffffffffffffffffffffffffffff16476040516111a5906117e2565b60006040518083038185875af1925050503d80600081146111e2576040519150601f19603f3d011682016040523d82523d6000602084013e6111e7565b606091505b505090508061122b576040517f08c379a00000000000000000000000000000000000000000000000000000000081526004016112229061184d565b60405180910390fd5b50565b61123661071d565b73ffffffffffffffffffffffffffffffffffffffff163373ffffffffffffffffffffffffffffffffffffffff16146112a3576040517f08c379a000000000000000000000000000000000000000000000000000000000815260040161129a9061190d565b60405180910390fd5b6112ac8161138a565b50565b60008073ffffffffffffffffffffffffffffffffffffffff1660008084815260200190815260200160002060030160009054906101000a900473ffffffffffffffffffffffffffffffffffffffff1673ffffffffffffffffffffffffffffffffffffffff1614159050919050565b60003373ffffffffffffffffffffffffffffffffffffffff1660008084815260200190815260200160002060030160009054906101000a900473ffffffffffffffffffffffffffffffffffffffff1673ffffffffffffffffffffffffffffffffffffffff16149050919050565b80600360006101000a81548173ffffffffffffffffffffffffffffffffffffffff021916908373ffffffffffffffffffffffffffffffffffffffff16021790555050565b6040518060a00160405280600081526020016000815260200160008019168152602001600073ffffffffffffffffffffffffffffffffffffffff16815260200160006002811115611448577f4e487b7100000000000000000000000000000000000000000000000000000000600052602160045260246000fd5b81525090565b60008135905061145d81611cc6565b92915050565b60008135905061147281611cdd565b92915050565b60008135905061148781611cf4565b92915050565b60008135905061149c81611d0b565b92915050565b6000602082840312156114b457600080fd5b60006114c28482850161144e565b91505092915050565b600080604083850312156114de57600080fd5b60006114ec85828601611463565b92505060206114fd85828601611478565b9150509250929050565b60006020828403121561151957600080fd5b600061152784828501611478565b91505092915050565b60006020828403121561154257600080fd5b60006115508482850161148d565b91505092915050565b6115628161199f565b82525050565b6115718161199f565b82525050565b6115886115838261199f565b611a7f565b82525050565b61159f61159a826119b1565b611a91565b82525050565b6115ae816119dd565b82525050565b6115bd816119dd565b82525050565b6115cc81611a24565b82525050565b60006115df60218361198e565b91506115ea82611b18565b604082019050919050565b6000611602600f8361198e565b915061160d82611b67565b602082019050919050565b600061162560148361198e565b915061163082611b90565b602082019050919050565b600061164860158361198e565b915061165382611bb9565b602082019050919050565b600061166b60108361198e565b915061167682611be2565b602082019050919050565b600061168e600d8361198e565b915061169982611c0b565b602082019050919050565b60006116b160178361198e565b91506116bc82611c34565b602082019050919050565b60006116d4600083611983565b91506116df82611c5d565b600082019050919050565b60006116f7601a8361198e565b915061170282611c60565b602082019050919050565b600061171a601a8361198e565b915061172582611c89565b602082019050919050565b60a0820160008201516117466000850182611798565b5060208201516117596020850182611798565b50604082015161176c60408501826115a5565b50606082015161177f6060850182611559565b50608082015161179260808501826115c3565b50505050565b6117a181611a1a565b82525050565b6117b081611a1a565b82525050565b60006117c2828561158e565b6010820191506117d28284611577565b6014820191508190509392505050565b60006117ed826116c7565b9150819050919050565b600060208201905061180c6000830184611568565b92915050565b600060208201905061182760008301846115b4565b92915050565b60006020820190508181036000830152611846816115d2565b9050919050565b60006020820190508181036000830152611866816115f5565b9050919050565b6000602082019050818103600083015261188681611618565b9050919050565b600060208201905081810360008301526118a68161163b565b9050919050565b600060208201905081810360008301526118c68161165e565b9050919050565b600060208201905081810360008301526118e681611681565b9050919050565b60006020820190508181036000830152611906816116a4565b9050919050565b60006020820190508181036000830152611926816116ea565b9050919050565b600060208201905081810360008301526119468161170d565b9050919050565b600060a0820190506119626000830184611730565b92915050565b600060208201905061197d60008301846117a7565b92915050565b600081905092915050565b600082825260208201905092915050565b60006119aa826119fa565b9050919050565b60007fffffffffffffffffffffffffffffffff0000000000000000000000000000000082169050919050565b6000819050919050565b60008190506119f582611cb2565b919050565b600073ffffffffffffffffffffffffffffffffffffffff82169050919050565b6000819050919050565b6000611a2f826119e7565b9050919050565b6000611a4182611a1a565b91507fffffffffffffffffffffffffffffffffffffffffffffffffffffffffffffffff821415611a7457611a73611aad565b5b600182019050919050565b6000611a8a82611a9b565b9050919050565b6000819050919050565b6000611aa682611b0b565b9050919050565b7f4e487b7100000000000000000000000000000000000000000000000000000000600052601160045260246000fd5b7f4e487b7100000000000000000000000000000000000000000000000000000000600052602160045260246000fd5b60008160601b9050919050565b7f436f6e74726163742069732073746f7070656420617420746865206d6f6d656e60008201527f7400000000000000000000000000000000000000000000000000000000000000602082015250565b7f5472616e73666572206661696c65640000000000000000000000000000000000600082015250565b7f496e73756666696369656e742062616c616e6365000000000000000000000000600082015250565b7f436f75727365206973206e6f7420637265617465640000000000000000000000600082015250565b7f5472616e73666572206661696c65642100000000000000000000000000000000600082015250565b7f496e76616c696420737461746500000000000000000000000000000000000000600082015250565b7f436f6e7472616374206973206e6f742073746f70706564000000000000000000600082015250565b50565b7f4f6e6c79206f776e6572206f662074686520636f6e7472616374000000000000600082015250565b7f596f7520617265206e6f74206120636f75727365206f776e6572000000000000600082015250565b60038110611cc357611cc2611adc565b5b50565b611ccf8161199f565b8114611cda57600080fd5b50565b611ce6816119b1565b8114611cf157600080fd5b50565b611cfd816119dd565b8114611d0857600080fd5b50565b611d1481611a1a565b8114611d1f57600080fd5b5056fea264697066735822122023929a4c1af382cbc9b46fd9a0fdaef3651fc14797f151bfbbf6dd9a47151f0064736f6c63430008040033",
  "immutableReferences": {},
  "source": "// SPDX-License-Identifier: MIT\r\npragma solidity >=0.4.22 <0.9.0;\r\n\r\ncontract CourseMarketplace {\r\n\r\n    enum State {\r\n        Purchased,\r\n        Activated,\r\n        Deactivated\r\n    }\r\n\r\n    struct Course {\r\n        uint id;\r\n        uint price;\r\n        bytes32 proof;\r\n        address owner;\r\n        State state;\r\n    }\r\n\r\n    mapping(bytes32 => Course) private ownedCourses;\r\n\r\n    mapping(uint => bytes32) private ownedCourseHash;\r\n\r\n    uint private totalOwnedCourses;\r\n\r\n    address payable private owner;\r\n\r\n    bool isStopped;\r\n\r\n    constructor() {\r\n        setContractOwner(msg.sender);\r\n        isStopped = false;\r\n    }\r\n\r\n    /// Course already has an owner!\r\n    error CourseHasOwner();\r\n\r\n    modifier onlyOwner() {\r\n        require(msg.sender == getContractOwner(), \"Only owner of the contract\");\r\n        _;\r\n    }\r\n\r\n    modifier isActive() {\r\n        require(!isStopped, \"Contract is stopped at the moment\");\r\n        _;\r\n    }\r\n\r\n    modifier isNotActive(){\r\n        require(isStopped, \"Contract is not stopped\");\r\n        _;\r\n    }\r\n\r\n    receive() external payable {}\r\n\r\n    function withdraw(uint amount) external onlyOwner {\r\n        require(amount <= address(this).balance, \"Insufficient balance\");\r\n        (bool success, ) = owner.call{value: amount}(\"\");\r\n        require(success, \"Transfer failed\");\r\n    }\r\n\r\n    function emergencyWithdraw() external onlyOwner isNotActive {\r\n        (bool success, ) = owner.call{value: address(this).balance}(\"\");\r\n        require(success, \"Transfer failed\");\r\n    }\r\n\r\n\r\n    function stopContract() external onlyOwner {\r\n        isStopped = true;\r\n    }\r\n\r\n    function resumeContract() external onlyOwner {\r\n        isStopped = false;\r\n    }\r\n\r\n    function purchaseCourse(\r\n        bytes16 courseId,\r\n        bytes32 proof\r\n    ) external payable isActive\r\n    {\r\n        bytes32 courseHash = keccak256(abi.encodePacked(courseId, msg.sender));\r\n        if (hasCourseOwnership(courseHash)) {\r\n            revert CourseHasOwner();\r\n        }\r\n        uint id = totalOwnedCourses++;\r\n        ownedCourseHash[id] = courseHash;\r\n        ownedCourses[courseHash] = Course({\r\n            id: id,\r\n            price: msg.value,\r\n            proof: proof,\r\n            owner: msg.sender,\r\n            state: State.Purchased\r\n        });\r\n    }\r\n\r\n    function repurchaseCourse(bytes32 courseHash) external payable isActive {\r\n        require(isCourseCreated(courseHash), \"Course is not created\");\r\n        require(hasCourseOwnership(courseHash), \"You are not a course owner\");\r\n        Course storage course = ownedCourses[courseHash];\r\n        require(course.state == State.Deactivated, \"Invalid state\");\r\n\r\n        course.state = State.Purchased;\r\n        course.price = msg.value;\r\n    }\r\n\r\n    function activateCourse(bytes32 courseHash) external onlyOwner isActive {\r\n        require(isCourseCreated(courseHash), \"Course is not created\");\r\n        Course storage course = ownedCourses[courseHash];\r\n        require(course.state == State.Purchased, \"Invalid state\");\r\n        course.state = State.Activated;\r\n    }\r\n\r\n    function deactivateCourse(bytes32 courseHash) external onlyOwner isActive {\r\n        require(isCourseCreated(courseHash), \"Course is not created\");\r\n        Course storage course = ownedCourses[courseHash];\r\n        require(course.state == State.Purchased, \"Invalid state\");\r\n\r\n        (bool success, ) = course.owner.call{value: course.price}(\"\");\r\n        require(success, \"Transfer failed!\");\r\n\r\n        course.state = State.Deactivated;\r\n        course.price = 0;\r\n    }\r\n\r\n    function transferOwnership(address newOwner) external onlyOwner {\r\n        setContractOwner(newOwner);\r\n    }\r\n\r\n    function getCourseCount() external view returns(uint) {\r\n        return totalOwnedCourses;\r\n    }\r\n\r\n    function getCourseHashAtIndex(uint index) external view returns(bytes32) {\r\n        return ownedCourseHash[index];\r\n    }\r\n\r\n    function getCourseByHash(bytes32 courseHash) external view returns(Course memory){\r\n        return ownedCourses[courseHash];\r\n    } \r\n\r\n    function getContractOwner() public view returns(address) {\r\n        return owner;\r\n    }\r\n\r\n    function setContractOwner(address newOwner) private {\r\n        owner = payable(newOwner);\r\n    }\r\n\r\n    function isCourseCreated(bytes32 courseHash) private view returns(bool){\r\n        return ownedCourses[courseHash].owner != 0x0000000000000000000000000000000000000000;\r\n    }\r\n\r\n    function hasCourseOwnership(bytes32 courseHash) private view returns(bool) {\r\n        return ownedCourses[courseHash].owner == msg.sender;\r\n    }\r\n}",
  "sourcePath": "C:\\Users\\magil\\Desktop\\web3\\SolCourse\\blockchain\\marketplace-eth\\contracts\\CourseMarketplace.sol",
  "compiler": {
    "name": "solc",
    "version": "0.8.4+commit.c7e474f2.Emscripten.clang"
  },
  "schemaVersion": "3.4.11",
  "updatedAt": "2023-05-01T13:47:35.000Z",
  "devdoc": {
    "kind": "dev",
    "methods": {},
    "version": 1
  },
  "userdoc": {
    "errors": {
      "CourseHasOwner()": [
        {
          "notice": "Course already has an owner!"
        }
      ]
    },
    "kind": "user",
    "methods": {},
    "version": 1
  }
}